:04158600024400001B
:100D080012156D1215CCE4FF12146A7F0112146AD1
:100D18007F0212146A12141E120690E4FBFD7F7003
:100D28001214A77B01E4FD7F701214A7300445124A
:100D38000A7B120690752E00752F007530227531CA
:100D4800007532017533027B017D017C007F5112F1
:100D58000DAB5322FB753700753800753922753A8B
:100D680000753B01753C027B017D017C007F5112BF
:100D78000F57C2043009B5C209752E00752F0075CA
:100D88003008753100753201E4F5337B017D01FCD3
:100D98007F38120DABE50824FC7091E4F508120FBA
:030DA800CF808970
:10156D007593037594037591807592827595817548
:09157D00968175B18075B28022DF
:0B15CC00D288D2A8D28AD2AAD2AF22C5
:0C15C000438901758C4CE4F58AD2A92205
:03000B000214FBE1
:0414FB00C0E0C0D0BD
:1014FF00758C4C758A000545E54570020544C3940B
:0F150F000AE54494004008B29475440075450005
:05151E00D0D0D0E03246
:03000300020006F2
:03000600D20432EF
:0300130002000EDA
:03000E00D20932E2
:10146A00EF14600B14600C2402700AD2A08006D21A
:10147A00A78002D280751F3CD51FFDEF14600B14A4
:10148A00600C2402700AD2978006D2B78002D281F9
:07149A00751F3CD51FFD2268
:1011A500EF14600B14600C2402700AD2978006D2EB
:1011B500B78002D281751F3CD51FFDEF14600B145B
:1011C500600C2402700AD2A08006D2A78002D280C9
:1011D500751F3CD51FFDEF14600B14600C240270C5
:1011E5000AC2978006C2B78002C281751F3CD51F0F
:1011F500FDEF14600B14600C2402700AC2A0800677
:0D120500C2A78002C280751F3CD51FFD22CC
:101271007E08ED14600D14601024027010EF33929B
:1012810097800AEF3392B78004EF339281EF25E024
:10129100FFED14600B14600C2402700AD2A08006CA
:1012A100D2A78002D280751F3CD51FFDED14600BC3
:1012B10014600C2402700AC2A08006C2A78002C278
:0B12C10080751F3CD51FFD1EEE70A7BE
:0112CC0022FF
:101132007D08EF14600B14600C2402700AD29780B1
:1011420006D2B78002D281EF14600B14600C240225
:10115200700AD2A08006D2A78002D280751F3CD529
:101162001FFDEE25E0FEEF14600C14600E240270E9
:101172001030970D800830B7088003308103430692
:1011820001EF14600B14600C2402700AC2A08006E6
:10119200C2A78002C280751F3CD51FFD1DED70A73E
:0211A200AF0696
:0111A4002228
:08104700FFAD3C121271AF3C39
:10104F00EF14600B14600C2402700AD2978006D242
:10105F00B78002D281751F3CD51FFDEF14600B14B2
:10106F00600C2402700AD2A08006D2A78002D28020
:10107F00751F3CD51FFDEF14600D14601024027016
:10108F0010A2979203800AA2B792038004A28192C2
:10109F0003EF14600B14600C2402700AC2A08006C8
:0E10AF00C2A78002C280751F3CD51FFDA203A0
:0110BD002210
:1012CD00E53714600D14601024027010A20092977F
:1012DD00800AA20092B78004A2009281751F3CD5AE
:1012ED001FFDE53714600B14600C2402700AD2A0A8
:1012FD008006D2A78002D280751F3CD51FFDE53731
:10130D0014600B14600C2402700AC2A08006C2A7E0
:0B131D008002C280751F3CD51FFD221E
:101212007D587C02EF14600B14600C2402700AC229
:10122200978006C2B78002C281751F3CD51FFDEFB1
:1012320014600B14600C2402700AD2A08006D2A79C
:101242008002D280751F3CD51FFDEF14600B146025
:101252000C2402700AD2978006D2B78002D281751E
:0E1262001F3CD51FFDED1D70011C144C70F7D4
:01127000225B
:100F5700E53B453A7002C322EF25E0F53DEBD3941C
:100F67000240027B02EB24FE60070470088D3E807E
:100F7700048C3E8D3F0BAF3C1211A5E4FCECC39BE8
:100F87005014743D2CF8E61210475007AF3C12126C
:100F970012D3220C80E7AB370539E539AA3870023E
:100FA700053814F91205C8121047400DE53B153BEB
:100FB7007002153A14453A70DDAF3C121212E53B48
:070FC700453A7002C322D37A
:010FCE002200
:100DAB00E53245317002C322EF25E0F534EBD394E5
:100DBB000240027B02EB602FBB01048D3580048C5B
:100DCB00358D360BAF331211A5E4FCECC39B5017DA
:100DDB0074342CF8E6FFAD33121271AF3312104F8F
:100DEB00500280180C80E4AF331211A5E53404FFD8
:100DFB00AD33121271AF3312104F5007AF331212C3
:100E0B0012D322AF33121132AB2E0530E530AA2F9D
:100E1B007002052F14F9EF1205E1E532153270025D
:100E2B001531144531700AD2008533371212CD803B
:100E3B000AC2008533371212CD80C8AF331212129B
:010E4B00C3E3
:010E4C002283
:10158A000A0907E20619081B2801050CC109010806
:01159A000050
:041523008D50AE0336
:10152700EFFD7C00753700753800753950753A0046
:10153700753B018E3C7B017F38120F579206A2063E
:011547002281
:061548008B1B8A1C891DAB
:10154E00EFFD7C008B2E8A2F8930753100753201AC
:0E155E00851E337B017F38120DAB9207A2076A
:01156C00225C
:0614A1007B01E4FD7F70F9
:0214A700AE0392
:1014A9008F298D2A753700753800753929753A00E5
:1014B900753B028E3C7B017D077C007F38120F57FC
:0414C9009202A202E7
:0114CD0022FC
:10159E00EF543FFD300803430580AB477F01121423
:0115AE00A795
:0115AF002219
:1014CE00EF540FF527432760E525541FF52830000C
:1014DE0003432880E4FB7D187F701214A7300103AC
:0C14EE00432840AB26AD28AF271214A7FE
:0114FA0022CF
:10132800EFB407005052901335F828287302134A77
:1013380002135102135702135D0213630213710261
:1013480013771214A1E4FB8022E4FB7D248024E4BB
:10135800FB7D03801EE4FB7DC08018E4FBFD7F70ED
:101368001214A77B017D03800A7B017D1880047B12
:09137800017D047F701214A7220C
:100ED900AE09AF0A7C007D6412065AA905AD0BAFB5
:030EE9000AAE0945
:100EEC00AB07AA06ED14B40C00505F900F0575F01B
:100EFC0003A4C58325F0C58373020F29020F2F02AB
:100F0C000F29020F2C020F29020F2C020F29020F9E
:100F1C0029020F2C020F29020F2C020F297F1F22EE
:100F2C007F1E22EB5403700EFC7D64AF03AE0212E5
:100F3C000605ED4C700FAE02AF037C017D901206DE
:0B0F4C0005ED4C70037F1D227F1C226E
:040B95008E248F25F6
:100B9900AE09AF0A7C007D6412065A8F26120ED95F
:100BA900E5246003020C52E525B407004003020C5A
:100BB90052900BC1F8282873020BD6020BF1020CD4
:100BC90008020C17020C26020C35020C4409E9D361
:100BD90094634002E4F9E52675F064A4AEF07C0064
:100BE90029F50AEC3EF50922050CAD0CED3395E02B
:100BF900FCD3ED9F7480F86C98404E750C0122056A
:100C09000BD3E50B6480948C403F750B0122050DD5
:100C1900D3E50D648094974030E4F50D22050ED399
:100C2900E50E648094BB4021E4F50E22050FD3E55F
:100C39000F648094BB4012E4F50F220510D3E51030
:090C4900648094874003751001DA
:010C5200227F
:040C53008E248F2537
:100C5700AE09AF0A7C007D6412065A8F26120ED9A0
:100C6700E5246003020D07E525B407004003020DE4
:100C770007900C7FF8282873020C94020CAF020C23
:100C8700BD020CCC020CDB020CEA020CF919E9C319
:100C9700940050027963E52675F064A4AEF07C00F9
:100CA70029F50AEC3EF50922150CC3E50C6480947E
:100CB70081504D8F0C22150BC3E50B648094815036
:100CC7003F750B0C22150DC3E50D648094805030E1
:100CD700750D1722150EC3E50E648094805021759B
:100CE7000E3B22150FC3E50F648094805012750FD9
:100CF7003B221510C3E510648094815003751007DB
:010D070022C9
:10069000C200C201AE09AF0A7C007D6412065A7E18
:1006A000007F0ACFCDCFCECCCE12065A8F25E4F5EF
:1006B000267F031214CEC200C201AE09AF0A7C002D
:1006C0007D6412065A7E007F0ACFCDCFCECCCE12EB
:1006D000065A8D25E4F5267F041214CEC200C2010D
:1006E000E50C75F00A1205A6F525E4F5267F021241
:1006F00014CEC200C201E50C75F00A1205A685F001
:1007000025E4F5267F051214CEC200C201E50B7563
:10071000F00A1205A6F525E4F5267F011214CEC2D3
:1007200000C201E50B75F00A1205A685F025E4F577
:1007300026FF1214CEC200C201E50D75F00A1205A3
:10074000A6F525E4F5267F061214CEC200C201E507
:100750000D75F00A1205A685F025E4F5267F07122F
:1007600014CEC200C201E50E75F00A1205A6F525E9
:10077000752601E4FF1214CEC200C201E50E75F029
:100780000A1205A685F0257526017F011214CEC236
:1007900000C201E50F75F00A1205A6F525752601C0
:1007A0007F031214CEC200C201E50F75F00A1205D4
:1007B000A685F0257526017F041214CEC200C20161
:1007C000E51275F00A1205A6F5257526017F0512BA
:1007D00014CEC200C201E51275F00A1205A685F01A
:1007E000257526017F061214CEC200C20185102590
:0807F0007526017F020214CE00
:100FCF00E4F523FB7D187F701214A73009FDC209C9
:100FDF00752E00752F00753008753100753201E4DC
:100FEF00F5337B017D01FC7F38120DABE5081460F2
:100FFF003B1460251460141470D1E4F5080523E543
:10100F0023D39406401FE4F523801AE4F508AF2399
:10101F00FE120B95120690800CE4F508AF23FE121A
:10102F000C53120690AF23121328809FE4FBFD7F11
:07103F00701214A71214A1A6
:011046002287
:1015B00000030030082501051800000000838201A7
:02159B00C10489
:10141E0078237C007D007BFF7A1579B07E007F10EB
:10142E00120580753700753800753923753A0075C9
:10143E003B02753C027B01E4FDFC7F51120F577598
:10144E00370075380075392C753A00753B07753CB9
:0C145E00027B017D097C007F51020F57CA
:100A7B00752E00752F007530237531007532077593
:100A8B0033027B017D027C007F51120DABE52354B9
:100A9B007FFF75F0101205A675F00AA4FEEF75F036
:100AAB00101205A6AFF0EE2FF50FE524547FFF755E
:100ABB00F0101205A675F00AA4FEEF75F0101205E2
:100ACB00A6AFF0EE2FF50EE525543FFF75F0101293
:100ADB0005A675F00AA4FEEF75F0101205A6AFF08F
:100AEB00EE2FF50DE526543FFF75F0101205A67598
:100AFB00F00AA4FEEF75F0101205A6AFF0EE2FF57D
:100B0B000CE5275407F510E528541FFF75F010125C
:100B1B0005A675F00AA4FEEF75F0101205A6AFF04E
:100B2B00EE2FF50BAF29EFC4540F75F00AA4FFAEEF
:100B3B00F0E529540F7C002FF50AEC3EF509E5286A
:100B4B0030E704746C800274D0250AF50A740735FB
:100B5B0009F509C20085292AE528541FF52BE5263E
:100B6B00543FF52C12027AE541C4540F75F00AA4D8
:100B7B00FFE541540F2FF511E543C4540F75F00AEF
:090B8B00A4FFE543540F2FF512FD
:010B9400223E
:10094100E50F75F00A1205A6C454F0FFE50F75F026
:100951000A1205A6AEF0EF2EF51353137FE50E75BF
:10096100F00A1205A6C454F0FFE50E75F00A12054F
:10097100A6AEF0EF2EF51453147FE50D75F00A12B3
:1009810005A6C454F0FFE50D75F00A1205A6AEF0F8
:10099100EF2EF51553153FE50C75F00A1205A6C4A7
:1009A10054F0FFE50C75F00A1205A6AEF0EF2EF536
:1009B1001653163F851017E50B75F00A1205A6C4EC
:1009C10054F0FFE50B75F00A1205A6AEF0EF2EF517
:1009D10018AE09AF0A7C007D6412065AEF64134E0B
:1009E1007005431880800353187FAE09AF0A7C005D
:1009F1007D6412065A7E007F0ACFCDCFCECCCE12B7
:100A0100065AEFC454F0FBAE09AF0A7C007D6412B4
:100A1100065A7E007F0ACFCDCFCECCCE12065AEB3E
:100A21002DF519753700753800753913753A00754C
:100A31003B07753C027B017D027C007F51120F5701
:100A4100E51833920085192AE518541FF52BE51690
:100A5100543FF52C12027AE541C4540F75F00AA4F3
:100A6100FFE541540F2FF511E543C4540F75F00A0A
:090A7100A4FFE543540F2FF51218
:010A7A002259
:1010BE00752E00752F00753048753100753202752A
:1010CE0033027B017D097C007F51120DABE5485444
:1010DE0080FF3395E04F700FE5495480FF3395E064
:1010EE004F7004D2058002C205E548547FFF75F0AB
:1010FE00101205A675F00AA4FEEF75F0101205A6E3
:10110E00AFF0EE2FF54EE549543FFF75F010120586
:10111E00A675F00AA4FEEF75F0101205A6AFF0EE5C
:03112E002FF54F4B
:01113100229B
:1013D100E54E75F00A84C454F0FFE54E75F00A84B9
:1013E100EF25F0F54A534A7FE54F75F00A84C4545E
:1013F100F0FFE54F75F00A84EF25F0F54B534B3FB5
:1014010075370075380075394A753A00753B0275B4
:0D1411003C027B017D097C007F51020F57DA
:10138100E54E75F00A84C454F0FFE54E75F00A8409
:10139100EF25F0F54C434C80E54F75F00A84C454B9
:1013A100F0FFE54F75F00A84EF25F0F54D534D3F01
:1013B100434D8075370075380075394C753A0075A5
:1013C1003B02753C027B017D097C007F51020F5776
:1000160004AE530A57485526BD0D26500D95444645
:10002600AAB9056A4D09AD4224AEB604AE4A6A4D78
:10003600BE0A4D520D25465D52BA0B544E0D6A430B
:10004600296D37095B4B749BC10497540A4B485B77
:1000560025BC06A55006D4454ADAB802B64D09575E
:10006600422497B704974A664B3E0D4A510EA54661
:1000760056D4BA05AD4E02B644393738092E4B7CF4
:1000860096BF0C95530D4A486DA53B0B554F056A17
:10009600454AADB9025D4D092D422C95B60A954AE1
:1000A6007B4ABD06CA510B5546555ABB04DA4E0A61
:1000B6005B43352BB8052B4C8A953F0E955206AA05
:1000C600487AD53C0AB54F04B6454A57390A574DC2
:1000D6000526423E93350D954975AABE056A510916
:1000E6006D4654AEBB04AD4F0A4D434D26B70D25A4
:1000F6004B8D52BF0B54520B6A47696D3C095B50DE
:10010600049B454A4BB90A4B4DAB25C206A554067E
:10011600D4496ADA3D0AB6510937465497BB049763
:100126004F064B4436A5370EA54A86B2BF05AC53DB
:100136000AB6475936BC092E500C96454D4AB80D9D
:100146004A4C0DA54125AAB6056A497AADBD025DA0
:1001560052092D475C95BA0A954E0B4A434B5537C3
:100166000AD54A955ABF04BA530A5B48652BBC05A3
:100176002B500A9345474AB906AA4C0AD54124DAB8
:10018600B604B64A69573D0A4E510D26465E933A65
:100196000D534D05AA4336B537096D4BB4AEBF04B2
:1001A600AD530A4D486D25BC0D254F0D52445DAA31
:1001B600380B5A4C056D4124ADB6049B4A7A4BBEAA
:1001C6000A4B510AA5465B52BA06D24E0ADA4235A6
:1001D6005B3709374B8497C1049753064B4866A58E
:1001E6003C0EA54F06B2444AB6380AAE4C092E421A
:1001F6003C97350C96497D4ABD0D4A510DA545558E
:10020600AABA056A4E0A6D43452EB7052D4B8A9547
:10021600BF0A95530B4A476B553B0AD54F055A45BE
:100226004A5D380A5B4C052B423A93B606934977EA
:1002360029BD06AA510AD54654DABA04B64E0A575B
:10024600434527380D264A8E933E0D52520DAA4736
:1002560066B53B056D4F04AE454A4EB90A4D4C0D89
:1002660015412D92B5001F3B5A7897B5D4F301116D
:040276000130014E04
:0607F800AD32AC31AF2E62
:1007FE00EF14B40D00400302094090081675F00383
:10080E00A4C58325F0C5837302083D020851020872
:10081E006502087902088D0208A10208B50208C90E
:10082E000208DD0208F102090502091902092D74F8
:10083E00162DF58274003CF583E49354087002C3C0
:10084E0022D32274162DF58274003CF583E4935462
:10085E00047002C322D32274162DF58274003CF567
:10086E0083E49354027002C322D32274162DF582B0
:10087E0074003CF583E49354017002C322D32274B6
:10088E00172DF58274003CF583E49354807002C3F7
:10089E0022D32274172DF58274003CF583E4935411
:1008AE00407002C322D32274172DF58274003CF5DA
:1008BE0083E49354207002C322D32274172DF58241
:1008CE0074003CF583E49354107002C322D3227457
:1008DE00172DF58274003CF583E49354087002C31F
:1008EE0022D32274172DF58274003CF583E49354C1
:1008FE00047002C322D32274172DF58274003CF5C6
:10090E0083E49354027002C322D32274172DF5820E
:10091E0074003CF583E49354017002C322D3227415
:10092E00182DF58274003CF583E49354807002C355
:02093E0022D3C2
:010940002294
:10027A00E52AC4540FFBE52A540FFAEB75F00AA4D9
:10028A002AF52AE52BC4540FFBE52B540FFAEB751C
:10029A00F00AA42AF52BE52CC4540FFBE52C540FC5
:1002AA00FAEB75F00AA42AF52CE52A200007246344
:1002BA00FFE433800624FFFFE434FFFE7C007D0365
:1002CA001205F38E318F3274182532F58274003597
:1002DA0031F583E493FE5460FB7805FF088001033F
:1002EA00D8FDFBEE541FFABB010514F52D8005EA73
:1002FA00241EF52DE52BC3940AE52B500B90026AB8
:10030A0093252CFFE433801525E02460F582E4343C
:10031A0002F583740193252CFFE4933400CF24FF64
:10032A00F530EF34FFF52FE52BD39402400EE52A82
:10033A00540370080530E5307002052FAF2D7E009A
:10034A00C3E5309FE52F9E4079E5309FF530E52FD4
:10035A009EF52F752B01752E011207F89201C20224
:10036A002001047B1D80027B1E74162532F58274DF
:10037A00003531F583E49354F0FA7804FF088001DC
:10038A0003D8FDFAEBFF7E00C3E5309FE52F9E40C0
:10039A002CE5309FF530E52F9EF52F052EE52BB580
:1003AA000209B202200206052B8002052B1207F869
:1003BA0092012001047B1D80CB7B1E80C7E53002A1
:1003CA000451C3E52D9530F52DE52A7007752A638A
:1003DA00D2008002152A74FD2532F53274FF3531B8
:1003EA00F531752B0CFE74162532F58274003EF534
:1003FA0083E49354F0FA7804FF08800103D8FDFAE5
:10040A007005752E0C8003752E0DC2021207F89224
:10041A00012001047B1D80027B1EE52DD39B402316
:10042A00E52D9BF52D152E200202152BE52BB50285
:10043A0002B2021207F892012001047B1D80DB7BC5
:10044A001E80D7C3EB952D04F52CA200920AE52A4B
:10045A0075F00A84FB7804FF08800123D8FDFBE5C8
:10046A002A75F00A84AAF0EB4AF542E52B75F00AE0
:10047A0084FB7804FF08800123D8FDFBE52B75F087
:10048A000A84AAF0EB4AF541E52C75F00A84FB7858
:10049A0004FF08800123D8FDFBE52C75F00A84AA25
:0504AA00F0EB4AF543F0
:0104AF00222A
:03000000020E4DA0
:0C0E4D00787FE4F6D8FD758150020E9409
:1004B000E709F608DFFA8046E709F208DFFA803E2E
:1004C00088828C83E709F0A3DFFA8032E309F6081B
:1004D000DFFA8078E309F208DFFA807088828C8383
:1004E000E309F0A3DFFA806489828A83E0A3F60837
:1004F000DFFA805889828A83E0A3F208DFFA804C11
:1005000080D280FA80C680D4806980F280338010E7
:1005100080A680EA809A80A880DA80E280CA803350
:1005200089828A83ECFAE493A3C8C582C8CCC583C8
:10053000CCF0A3C8C582C8CCC583CCDFE9DEE78098
:100540000D89828A83E493A3F608DFF9ECFAA9F017
:10055000EDFB2289828A83ECFAE0A3C8C582C8CC6D
:10056000C583CCF0A3C8C582C8CCC583CCDFEADE86
:10057000E880DB89828A83E493A3F208DFF980CCE8
:1005800088F0EF60010E4E60C388F0ED2402B404E1
:100590000050B9F582EB2402B4040050AF23234588
:0605A000822390050073A8
:1005A600C2D530F707B2D563F0FF05F030E70CB2DD
:1005B600D5F4048463F0FF05F080018430D502F49D
:0205C60004220D
:1005C800BB010689828A83E0225002E722BBFE0231
:0905D800E32289828A83E4932264
:1005E100BB010689828A83F0225002F722BBFE01F9
:0205F100F322F3
:1005F300EF8DF0A4A8F0CF8CF0A428CE8DF0A42E1C
:02060300FE22D5
:10060500BC000BBE0029EF8DF084FFADF022E4CCD9
:10061500F875F008EF2FFFEE33FEEC33FCEE9DECA2
:10062500984005FCEE9DFE0FD5F0E9E4CEFD22EDE8
:10063500F8F5F0EE8420D21CFEADF075F008EF2F32
:10064500FFED33FD4007985006D5F0F222C398FD23
:050655000FD5F0EA22C0
:10065A00C2D5EC30E709B2D5E4C39DFDE49CFCEEBB
:10066A0030E715B2D5E4C39FFFE49EFE120605C328
:10067A00E49DFDE49CFC800312060530D507C3E423
:06068A009FFFE49EFE222A
:100E5900020D08E493A3F8E493A34003F68001F29A
:100E690008DFF48029E493A3F85407240CC8C3339A
:100E7900C4540F4420C8834004F456800146F6DF69
:100E8900E4800B0102040810204080901586E47E5E
:100E9900019360BCA3FF543F30E509541FFEE4935E
:100EA900A360010ECF54C025E060A840B8E493A325
:100EB900FAE493A3F8E493A3C8C582C8CAC583CA50
:100EC900F0A3C8C582C8CAC583CADFE9DEE780BE08
:01159D00004D
:00000001FF
